:100000006F00C02B00000000380300003603000022
:1000100000000000000000000000000000000000E0
:1000200000000000000000000000000000000000D0
:10003000360300000000000036030000000000004E
:1000400036030000360300003603000036030000CC
:1000500036030000360300003603000036030000BC
:1000600036030000360300003603000036030000AC
:10007000360300003603000036030000360300009C
:100080003603000036030000360300006C07000052
:1000900036030000360300003603000000000000B5
:1000A000634E050263C305042E86AA857D5515C2DD
:1000B00085466378B6006356C00006068606E36C84
:1000C000B6FE014563E4C500918D558D858205829C
:1000D000F5FA82808682C93F2E8582823305A04050
:1000E0006347B000B305B040C1B7B305B0408682E6
:1000F000653F3305A0408282868263C7050063495D
:1001000005005D372E858282B305B040E35B05FEB6
:100110003305A040513F3305B040828200003111C9
:1001200026C406C822C6AE84AA87B28599C60143F2
:1001300063D79600B684054319A00143A68633848D
:10014000964063530400014422863A853EC21AC099
:10015000CD26024392472A87B30685000146B38520
:10016000C4406342B00463D304008144B385960065
:100170003385E540630403026372B7029307A0026C
:10018000A38FF5FE9386F5FF637AD700238FF5FEE4
:100190009386E5FF6374D700A38EF5FEC240324418
:1001A000A24451018280B385C70003C50500B38511
:1001B000C60005062380A5005DB7011106CE22CC3E
:1001C00026CA02C02A836357050089E685473303A0
:1001D000A0403EC0058A1304100619C2130410047F
:1001E000BA8459141A853AC81AC22EC61AC4DD3503
:1001F000A5472243B24542479376F50F63E1A70630
:100200009386060393F6F60F938714002380D40099
:100210001A853AC83EC62EC4413D9246A245B24711
:1002200042472A8363FBB602824699C69306D002F0
:100230002380D700938724003385E7409356F50148
:10024000AA962380070085860146FD17634BD600DA
:10025000F2406244D24405618280BE8461B7A296B6
:1002600055B7B305C70083C2070003C305000506E1
:100270002380550023806700C9BF37470140AA8605
:1002800081472E851307078063C3A700828003562A
:1002900007001376060465DE3386F6000346060083
:1002A00085072312C700CDB7511122C206C42E8480
:1002B000E937A24022851244310182809701002053
:1002C0009381415413810100130500087310053018
:1002D0008D46170500001305E5D2558D7310553076
:1002E00017050020130505D29385818001466356CA
:1002F000B50010C11105E34EB5FE1705000013054A
:100300006559970500209385E5CF17060020130651
:1003100066CF6388C500144194C111059105E39A25
:10032000C5FEB7F700E0054798C39307E0637390F5
:1003300017347300203001A0371702401C47B7065E
:100340008000D58F1CC7AA8703C7070001E7338544
:10035000A74082808507CDBF130141FAA2CAA6C873
:1003600086CC2AC02EC23284B68402CA83470400D7
:1003700093061400A30FF10081EBE640564452456A
:10038000C6441301C105828036C61307500263803C
:10039000E7021246824785451305F1018297B2466E
:1003A00026C43684D247A244AA973ECAC1B703479F
:1003B00014001306000393060003A30FE10032C6E6
:1003C000930724006312D7083E8481468147A545E0
:1003D00011A8139727000504BA970347F4FF86076F
:1003E000B2978546130607FD1375F60FE3F3A5FED6
:1003F00099C2A30FE1003EC8E14663D3F60036C8B8
:100400001306C00681466318C700034704008546EB
:100410000504A30FE1000346F1011307400663053D
:10042000E6066367C702930780056300F60A930731
:100430003006630DF60A31D2124682478545130510
:10044000F101829726C4B9BF9306000236C6ADBF3C
:1004500013075007630AE602130780076307E606DF
:1004600013073007E31AE6FC3ECC93874400844030
:100470003EC42685C93DE247AA856356F008C246B8
:100480003246381826851DA0938744003EC495C681
:100490001306B6F818109336160088400146A94591
:1004A000293BC24632463818AA8508108D391246B3
:1004B000AA85281882478297F5B593075007181028
:1004C0008546E30CF6FC8146C9BF8840130686FAD0
:1004D000938744001810854613361600C1453EC464
:1004E000E939C2463246AA853818C1B79387440015
:1004F0003EC49C40C2463246A30FF10038188545E1
:100500001305F10165B7124626856DB71301C1FDCC
:1005100032CA2A862EC836CC814514081305802A93
:1005200006C63ACE3ED036C0053DB2401301410268
:1005300082802A96AA876393C70082802380B700AF
:100540008507D5BF511106C422C226C0AA84E53B47
:100550002A84AA8526851533056585451305C5803A
:10056000293BA240130514001244824431018280C9
:10057000B74701409387078003D707001377070425
:1005800065DF1375F50F2392A70005458280B70735
:10059000090093871708371702401CC3B71702409A
:1005A00098439316E700E3DD06FE41670507D8C3CD
:1005B000370709011307170898C3854637270240F4
:1005C00014C337079F0098C7371702401C43939600
:1005D0006700E3DD06FE5C432146F19B93E72700BD
:1005E0005CC3B7170240D843318BE31EC7FE984F58
:1005F000916693860602558F98CFB717014093876F
:1006000007409843B70610FFFD16758F98C39843AF
:10061000B7069000558F98C3B74701402396C7800F
:1006200023980780239A07801307000D2394E780FF
:1006300003D7C7808966558F2396E7808280511142
:1006400006C422C2A937056513050581E53DB71724
:100650000240D843C1769386F67F758FD8C3984FF2
:100660003706F1FF7D161367072298CF3717014031
:100670001307074014433724014013040440F18E4C
:1006800014C3D84705651305058413670720D8C729
:10069000D8471377F7DFD8C723260402232804029C
:1006A0009D475CD81C48370720FF7D17F98F1CC871
:1006B0001C483707E000D98F1CC8B7070E00850714
:1006C0001CC449351C4493E787001CC41C44A18BFF
:1006D000F5FF1C44372701401307074093E7470005
:1006E0001CC41C47918BF5FF056513054585993D95
:1006F00005651305C586B935B71602409C4E0567DA
:1007000013070780D98F9CCEB737014003D707C0A6
:10071000A1460565420741832390E7C01307000205
:100720002392E7C0130700052396E7C225472394C9
:10073000E7C2239807C20547239AE7C037E700E0DE
:100740002322D71079572398E7C003D7C7C0B145F4
:1007500013054588136717002396E7C003D707C022
:10076000136717002390E7C0553301A079713EC08D
:10077000B73701403AC203D707C106D616D41AD2FA
:100780001ED022CE26CC2ACA2EC832C636C4058B2D
:1007900039CF938707C079572398E700B7270140DF
:1007A00093870740E847B704002083A74400370435
:1007B0000020130505E03E958327040023A2A40032
:1007C000214785072320F400639AE7000D85130570
:1007D000F507793B23A2040023200400B72701403A
:1007E000938707409847B7064000558F98C77244D3
:1007F000B250A25212538253E2445245C24532468D
:10080000A246124782474561730020300A0000006B
:10081000496E697469616C697A696E672041444305
:100820002E2E2E2028626A732070696E2050443468
:100830002049207468696E6B2E2E2E290D00000051
:1008400043616C6962726174696E67204144432E32
:100850002E2E0D0043616C6962726174696E6720AF
:10086000646F6E652E2E2E0D00000000496E6974B7
:1008700069616C697A696E672074696D65722E2E84
:100880002E0D0000686572652025640A00000000D6
:00000001FF
